{
  "contractName": "EcommerceStore",
  "abi": [
    {
      "constant": true,
      "inputs": [],
      "name": "productIndex",
      "outputs": [
        {
          "name": "",
          "type": "uint256"
        }
      ],
      "payable": false,
      "stateMutability": "view",
      "type": "function"
    },
    {
      "inputs": [],
      "payable": false,
      "stateMutability": "nonpayable",
      "type": "constructor"
    },
    {
      "constant": false,
      "inputs": [
        {
          "name": "_name",
          "type": "string"
        },
        {
          "name": "_category",
          "type": "string"
        },
        {
          "name": "_imageLink",
          "type": "string"
        },
        {
          "name": "_descLink",
          "type": "string"
        },
        {
          "name": "_auctionStartTime",
          "type": "uint256"
        },
        {
          "name": "_auctionEndTime",
          "type": "uint256"
        },
        {
          "name": "_startPrice",
          "type": "uint256"
        },
        {
          "name": "_productCondition",
          "type": "uint256"
        }
      ],
      "name": "addProductToStore",
      "outputs": [],
      "payable": false,
      "stateMutability": "nonpayable",
      "type": "function"
    },
    {
      "constant": true,
      "inputs": [
        {
          "name": "_productId",
          "type": "uint256"
        }
      ],
      "name": "getProduct",
      "outputs": [
        {
          "name": "",
          "type": "uint256"
        },
        {
          "name": "",
          "type": "string"
        },
        {
          "name": "",
          "type": "string"
        },
        {
          "name": "",
          "type": "string"
        },
        {
          "name": "",
          "type": "string"
        },
        {
          "name": "",
          "type": "uint256"
        },
        {
          "name": "",
          "type": "uint256"
        },
        {
          "name": "",
          "type": "uint256"
        },
        {
          "name": "",
          "type": "uint8"
        },
        {
          "name": "",
          "type": "uint8"
        }
      ],
      "payable": false,
      "stateMutability": "view",
      "type": "function"
    },
    {
      "constant": false,
      "inputs": [
        {
          "name": "_productId",
          "type": "uint256"
        },
        {
          "name": "_bid",
          "type": "bytes32"
        }
      ],
      "name": "bid",
      "outputs": [
        {
          "name": "",
          "type": "bool"
        }
      ],
      "payable": true,
      "stateMutability": "payable",
      "type": "function"
    },
    {
      "constant": false,
      "inputs": [
        {
          "name": "_productId",
          "type": "uint256"
        },
        {
          "name": "_amount",
          "type": "string"
        },
        {
          "name": "_secret",
          "type": "string"
        }
      ],
      "name": "revealBid",
      "outputs": [],
      "payable": false,
      "stateMutability": "nonpayable",
      "type": "function"
    },
    {
      "constant": true,
      "inputs": [
        {
          "name": "_productId",
          "type": "uint256"
        }
      ],
      "name": "highestBidderInfo",
      "outputs": [
        {
          "name": "",
          "type": "address"
        },
        {
          "name": "",
          "type": "uint256"
        },
        {
          "name": "",
          "type": "uint256"
        }
      ],
      "payable": false,
      "stateMutability": "view",
      "type": "function"
    },
    {
      "constant": true,
      "inputs": [
        {
          "name": "_productId",
          "type": "uint256"
        }
      ],
      "name": "totalBids",
      "outputs": [
        {
          "name": "",
          "type": "uint256"
        }
      ],
      "payable": false,
      "stateMutability": "view",
      "type": "function"
    }
  ],
  "bytecode": "0x6060604052341561000f57600080fd5b60008081905550612156806100256000396000f300606060405260043610610083576000357c0100000000000000000000000000000000000000000000000000000000900463ffffffff16806328e3d19014610088578063a508b955146100bf578063b9db15b414610209578063c897d5a61461042f578063ce818ea914610458578063ea1591bb146104c9578063f85f196e14610506575b600080fd5b341561009357600080fd5b6100a960048080359060200190919050506105af565b6040518082815260200191505060405180910390f35b34156100ca57600080fd5b610207600480803590602001908201803590602001908080601f0160208091040260200160405190810160405280939291908181526020018383808284378201915050505050509190803590602001908201803590602001908080601f0160208091040260200160405190810160405280939291908181526020018383808284378201915050505050509190803590602001908201803590602001908080601f0160208091040260200160405190810160405280939291908181526020018383808284378201915050505050509190803590602001908201803590602001908080601f016020809104026020016040519081016040528093929190818152602001838380828437820191505050505050919080359060200190919080359060200190919080359060200190919080359060200190919050506109d7565b005b341561021457600080fd5b61022a6004808035906020019091905050610ca8565b604051808b8152602001806020018060200180602001806020018a815260200189815260200188815260200187600281111561026257fe5b60ff16815260200186600181111561027657fe5b60ff16815260200185810385528e818151815260200191508051906020019080838360005b838110156102b657808201518184015260208101905061029b565b50505050905090810190601f1680156102e35780820380516001836020036101000a031916815260200191505b5085810384528d818151815260200191508051906020019080838360005b8381101561031c578082015181840152602081019050610301565b50505050905090810190601f1680156103495780820380516001836020036101000a031916815260200191505b5085810383528c818151815260200191508051906020019080838360005b83811015610382578082015181840152602081019050610367565b50505050905090810190601f1680156103af5780820380516001836020036101000a031916815260200191505b5085810382528b818151815260200191508051906020019080838360005b838110156103e85780820151818401526020810190506103cd565b50505050905090810190601f1680156104155780820380516001836020036101000a031916815260200191505b509e50505050505050505050505050505060405180910390f35b341561043a57600080fd5b61044261114c565b6040518082815260200191505060405180910390f35b341561046357600080fd5b6104796004808035906020019091905050611152565b604051808473ffffffffffffffffffffffffffffffffffffffff1673ffffffffffffffffffffffffffffffffffffffff168152602001838152602001828152602001935050505060405180910390f35b6104ec60048080359060200190919080356000191690602001909190505061158f565b604051808215151515815260200191505060405180910390f35b341561051157600080fd5b6105ad600480803590602001909190803590602001908201803590602001908080601f0160208091040260200160405190810160405280939291908181526020018383808284378201915050505050509190803590602001908201803590602001908080601f01602080910402602001604051908101604052809392919081815260200183838082843782019150505050505091905050611822565b005b60006105b9611f54565b600160006002600086815260200190815260200160002060009054906101000a900473ffffffffffffffffffffffffffffffffffffffff1673ffffffffffffffffffffffffffffffffffffffff1673ffffffffffffffffffffffffffffffffffffffff16815260200190815260200160002060008481526020019081526020016000206101c0604051908101604052908160008201548152602001600182018054600181600116156101000203166002900480601f0160208091040260200160405190810160405280929190818152602001828054600181600116156101000203166002900480156106ec5780601f106106c1576101008083540402835291602001916106ec565b820191906000526020600020905b8154815290600101906020018083116106cf57829003601f168201915b50505050508152602001600282018054600181600116156101000203166002900480601f01602080910402602001604051908101604052809291908181526020018280546001816001161561010002031660029004801561078e5780601f106107635761010080835404028352916020019161078e565b820191906000526020600020905b81548152906001019060200180831161077157829003601f168201915b50505050508152602001600382018054600181600116156101000203166002900480601f0160208091040260200160405190810160405280929190818152602001828054600181600116156101000203166002900480156108305780601f1061080557610100808354040283529160200191610830565b820191906000526020600020905b81548152906001019060200180831161081357829003601f168201915b50505050508152602001600482018054600181600116156101000203166002900480601f0160208091040260200160405190810160405280929190818152602001828054600181600116156101000203166002900480156108d25780601f106108a7576101008083540402835291602001916108d2565b820191906000526020600020905b8154815290600101906020018083116108b557829003601f168201915b505050505081526020016005820154815260200160068201548152602001600782015481526020016008820160009054906101000a900473ffffffffffffffffffffffffffffffffffffffff1673ffffffffffffffffffffffffffffffffffffffff1673ffffffffffffffffffffffffffffffffffffffff16815260200160098201548152602001600a8201548152602001600b8201548152602001600c820160009054906101000a900460ff16600281111561098b57fe5b600281111561099657fe5b8152602001600c820160019054906101000a900460ff1660018111156109b857fe5b60018111156109c357fe5b815250509050806101600151915050919050565b6109df611f54565b83851015156109ed57600080fd5b600160008082825401925050819055506101c06040519081016040528060005481526020018a8152602001898152602001888152602001878152602001868152602001858152602001848152602001600073ffffffffffffffffffffffffffffffffffffffff16815260200160008152602001600081526020016000815260200160006002811115610a7b57fe5b8152602001836001811115610a8c57fe5b6001811115610a9757fe5b815250905080600160003373ffffffffffffffffffffffffffffffffffffffff1673ffffffffffffffffffffffffffffffffffffffff168152602001908152602001600020600080548152602001908152602001600020600082015181600001556020820151816001019080519060200190610b14929190612008565b506040820151816002019080519060200190610b31929190612008565b506060820151816003019080519060200190610b4e929190612008565b506080820151816004019080519060200190610b6b929190612008565b5060a0820151816005015560c0820151816006015560e082015181600701556101008201518160080160006101000a81548173ffffffffffffffffffffffffffffffffffffffff021916908373ffffffffffffffffffffffffffffffffffffffff160217905550610120820151816009015561014082015181600a015561016082015181600b015561018082015181600c0160006101000a81548160ff02191690836002811115610c1857fe5b02179055506101a082015181600c0160016101000a81548160ff02191690836001811115610c4257fe5b021790555090505033600260008054815260200190815260200160002060006101000a81548173ffffffffffffffffffffffffffffffffffffffff021916908373ffffffffffffffffffffffffffffffffffffffff160217905550505050505050505050565b6000610cb2612088565b610cba612088565b610cc2612088565b610cca612088565b6000806000806000610cda611f54565b60016000600260008f815260200190815260200160002060009054906101000a900473ffffffffffffffffffffffffffffffffffffffff1673ffffffffffffffffffffffffffffffffffffffff1673ffffffffffffffffffffffffffffffffffffffff16815260200190815260200160002060008d81526020019081526020016000206101c0604051908101604052908160008201548152602001600182018054600181600116156101000203166002900480601f016020809104026020016040519081016040528092919081815260200182805460018160011615610100020316600290048015610e0d5780601f10610de257610100808354040283529160200191610e0d565b820191906000526020600020905b815481529060010190602001808311610df057829003601f168201915b50505050508152602001600282018054600181600116156101000203166002900480601f016020809104026020016040519081016040528092919081815260200182805460018160011615610100020316600290048015610eaf5780601f10610e8457610100808354040283529160200191610eaf565b820191906000526020600020905b815481529060010190602001808311610e9257829003601f168201915b50505050508152602001600382018054600181600116156101000203166002900480601f016020809104026020016040519081016040528092919081815260200182805460018160011615610100020316600290048015610f515780601f10610f2657610100808354040283529160200191610f51565b820191906000526020600020905b815481529060010190602001808311610f3457829003601f168201915b50505050508152602001600482018054600181600116156101000203166002900480601f016020809104026020016040519081016040528092919081815260200182805460018160011615610100020316600290048015610ff35780601f10610fc857610100808354040283529160200191610ff3565b820191906000526020600020905b815481529060010190602001808311610fd657829003601f168201915b505050505081526020016005820154815260200160068201548152602001600782015481526020016008820160009054906101000a900473ffffffffffffffffffffffffffffffffffffffff1673ffffffffffffffffffffffffffffffffffffffff1673ffffffffffffffffffffffffffffffffffffffff16815260200160098201548152602001600a8201548152602001600b8201548152602001600c820160009054906101000a900460ff1660028111156110ac57fe5b60028111156110b757fe5b8152602001600c820160019054906101000a900460ff1660018111156110d957fe5b60018111156110e457fe5b815250509050806000015181602001518260400151836060015184608001518560a001518660c001518760e00151886101800151896101a001518898508797508696508595509a509a509a509a509a509a509a509a509a509a50509193959799509193959799565b60005481565b600080600061115f611f54565b600160006002600088815260200190815260200160002060009054906101000a900473ffffffffffffffffffffffffffffffffffffffff1673ffffffffffffffffffffffffffffffffffffffff1673ffffffffffffffffffffffffffffffffffffffff16815260200190815260200160002060008681526020019081526020016000206101c0604051908101604052908160008201548152602001600182018054600181600116156101000203166002900480601f0160208091040260200160405190810160405280929190818152602001828054600181600116156101000203166002900480156112925780601f1061126757610100808354040283529160200191611292565b820191906000526020600020905b81548152906001019060200180831161127557829003601f168201915b50505050508152602001600282018054600181600116156101000203166002900480601f0160208091040260200160405190810160405280929190818152602001828054600181600116156101000203166002900480156113345780601f1061130957610100808354040283529160200191611334565b820191906000526020600020905b81548152906001019060200180831161131757829003601f168201915b50505050508152602001600382018054600181600116156101000203166002900480601f0160208091040260200160405190810160405280929190818152602001828054600181600116156101000203166002900480156113d65780601f106113ab576101008083540402835291602001916113d6565b820191906000526020600020905b8154815290600101906020018083116113b957829003601f168201915b50505050508152602001600482018054600181600116156101000203166002900480601f0160208091040260200160405190810160405280929190818152602001828054600181600116156101000203166002900480156114785780601f1061144d57610100808354040283529160200191611478565b820191906000526020600020905b81548152906001019060200180831161145b57829003601f168201915b505050505081526020016005820154815260200160068201548152602001600782015481526020016008820160009054906101000a900473ffffffffffffffffffffffffffffffffffffffff1673ffffffffffffffffffffffffffffffffffffffff1673ffffffffffffffffffffffffffffffffffffffff16815260200160098201548152602001600a8201548152602001600b8201548152602001600c820160009054906101000a900460ff16600281111561153157fe5b600281111561153c57fe5b8152602001600c820160019054906101000a900460ff16600181111561155e57fe5b600181111561156957fe5b815250509050806101000151816101200151826101400151935093509350509193909250565b600080600160006002600087815260200190815260200160002060009054906101000a900473ffffffffffffffffffffffffffffffffffffffff1673ffffffffffffffffffffffffffffffffffffffff1673ffffffffffffffffffffffffffffffffffffffff168152602001908152602001600020600085815260200190815260200160002090508060050154421015151561162a57600080fd5b8060060154421115151561163d57600080fd5b80600701543411151561164f57600080fd5b600081600d0160003373ffffffffffffffffffffffffffffffffffffffff1673ffffffffffffffffffffffffffffffffffffffff1681526020019081526020016000206000856000191660001916815260200190815260200160002060000160009054906101000a900473ffffffffffffffffffffffffffffffffffffffff1673ffffffffffffffffffffffffffffffffffffffff161415156116f157600080fd5b6080604051908101604052803373ffffffffffffffffffffffffffffffffffffffff1681526020018581526020013481526020016000151581525081600d0160003373ffffffffffffffffffffffffffffffffffffffff1673ffffffffffffffffffffffffffffffffffffffff1681526020019081526020016000206000856000191660001916815260200190815260200160002060008201518160000160006101000a81548173ffffffffffffffffffffffffffffffffffffffff021916908373ffffffffffffffffffffffffffffffffffffffff160217905550602082015181600101556040820151816002015560608201518160030160006101000a81548160ff021916908315150217905550905050600181600b0160008282540192505081905550600191505092915050565b60008061182d61209c565b60008060016000600260008b815260200190815260200160002060009054906101000a900473ffffffffffffffffffffffffffffffffffffffff1673ffffffffffffffffffffffffffffffffffffffff1673ffffffffffffffffffffffffffffffffffffffff168152602001908152602001600020600089815260200190815260200160002094508460060154421115156118c757600080fd5b86866040518083805190602001908083835b6020831015156118fe57805182526020820191506020810190506020830392506118d9565b6001836020036101000a03801982511681845116808217855250505050505090500182805190602001908083835b602083101515611951578051825260208201915060208101905060208303925061192c565b6001836020036101000a038019825116818451168082178552505050505050905001925050506040518091039020935084600d0160003373ffffffffffffffffffffffffffffffffffffffff1673ffffffffffffffffffffffffffffffffffffffff16815260200190815260200160002060008560001916600019168152602001908152602001600020608060405190810160405290816000820160009054906101000a900473ffffffffffffffffffffffffffffffffffffffff1673ffffffffffffffffffffffffffffffffffffffff1673ffffffffffffffffffffffffffffffffffffffff16815260200160018201548152602001600282015481526020016003820160009054906101000a900460ff16151515158152505092506000836000015173ffffffffffffffffffffffffffffffffffffffff16111515611a9757600080fd5b6000151583606001511515141515611aae57600080fd5b611ab787611d44565b90508083604001511015611ad15782604001519150611d3a565b60008560080160009054906101000a900473ffffffffffffffffffffffffffffffffffffffff1673ffffffffffffffffffffffffffffffffffffffff161415611b7b57338560080160006101000a81548173ffffffffffffffffffffffffffffffffffffffff021916908373ffffffffffffffffffffffffffffffffffffffff160217905550808560090181905550846007015485600a0181905550808360400151039150611c79565b8460090154811115611c5657846009015485600a01819055508460080160009054906101000a900473ffffffffffffffffffffffffffffffffffffffff1673ffffffffffffffffffffffffffffffffffffffff166108fc86600901549081150290604051600060405180830381858888f193505050501515611bfc57600080fd5b338560080160006101000a81548173ffffffffffffffffffffffffffffffffffffffff021916908373ffffffffffffffffffffffffffffffffffffffff160217905550808560090181905550808360400151039150611c78565b84600a0154811115611c73578085600a0181905550809150611c77565b8091505b5b5b6000821115611d39573373ffffffffffffffffffffffffffffffffffffffff166108fc839081150290604051600060405180830381858888f193505050501515611cc257600080fd5b600185600d0160003373ffffffffffffffffffffffffffffffffffffffff1673ffffffffffffffffffffffffffffffffffffffff1681526020019081526020016000206000866000191660001916815260200190815260200160002060030160006101000a81548160ff0219169083151502179055505b5b5050505050505050565b6000611d4e6120dd565b60008084925060009150600090505b8251811015611f495760307f0100000000000000000000000000000000000000000000000000000000000000028382815181101515611d9857fe5b9060200101517f010000000000000000000000000000000000000000000000000000000000000090047f0100000000000000000000000000000000000000000000000000000000000000027effffffffffffffffffffffffffffffffffffffffffffffffffffffffffffff191610158015611eb0575060397f0100000000000000000000000000000000000000000000000000000000000000028382815181101515611e4057fe5b9060200101517f010000000000000000000000000000000000000000000000000000000000000090047f0100000000000000000000000000000000000000000000000000000000000000027effffffffffffffffffffffffffffffffffffffffffffffffffffffffffffff191611155b15611f3c5760308382815181101515611ec557fe5b9060200101517f010000000000000000000000000000000000000000000000000000000000000090047f0100000000000000000000000000000000000000000000000000000000000000027f0100000000000000000000000000000000000000000000000000000000000000900403600a83020191505b8080600101915050611d5d565b819350505050919050565b6101c06040519081016040528060008152602001611f706120f1565b8152602001611f7d6120f1565b8152602001611f8a6120f1565b8152602001611f976120f1565b8152602001600081526020016000815260200160008152602001600073ffffffffffffffffffffffffffffffffffffffff16815260200160008152602001600081526020016000815260200160006002811115611ff057fe5b81526020016000600181111561200257fe5b81525090565b828054600181600116156101000203166002900490600052602060002090601f016020900481019282601f1061204957805160ff1916838001178555612077565b82800160010185558215612077579182015b8281111561207657825182559160200191906001019061205b565b5b5090506120849190612105565b5090565b602060405190810160405280600081525090565b608060405190810160405280600073ffffffffffffffffffffffffffffffffffffffff16815260200160008152602001600081526020016000151581525090565b602060405190810160405280600081525090565b602060405190810160405280600081525090565b61212791905b8082111561212357600081600090555060010161210b565b5090565b905600a165627a7a72305820a00ccb2cefc2e3016443433e1f99e4f216487d3905da4b2a590f58003e2327d90029",
  "source": "pragma solidity ^ 0.4 .17;\n\ncontract EcommerceStore {\n\n  struct Bid {\n    address bidder; // 拍卖的人的钱包地址\n    uint productId; // 产品id\n    uint value; // 拍卖出的价格\n    bool revealed; // 是否公告\n  }\n\n\n  enum ProductStatus {\n    Open, //拍卖中\n    Sold, //已经拍卖结束\n    Unsold // 还没开始拍卖\n  }\n  enum ProductCondition {\n    New, //新\n    Used //旧\n  }\n\n  // 统计拍卖的产品的数量\n  uint public productIndex;\n  mapping(address => mapping(uint => Product)) stores;\n  mapping(uint => address) productIdInStore;\n\n  struct Product {\n    uint id; //产品ID\n    string name; // 产品名字\n    string category; //产品分类\n    string imageLink; //产品图片在ipfs上返回回来的hash\n    string descLink; //产品描述信息在ipfs上返回回来的hash\n    uint auctionStartTime; // 拍卖的时间\n    uint auctionEndTime; // 拍卖结束时间\n    uint startPrice; // 起始拍卖价格\n    address highestBidder; // 最高拍卖人的地址\n    uint highestBid; // 当前的产品公告以后最终统计出来的最高的价格\n    uint secondHighestBid; // 第二高的人出的拍卖价格\n\n    uint totalBids; // 一共多少人来参与拍卖\n    ProductStatus status; // 产品拍卖的状态\n    ProductCondition condition; // 产品是新的还是旧的\n\n    mapping(address => mapping(bytes32 => Bid)) bids;\n  }\n\n  function EcommerceStore() public {\n    productIndex = 0; //0\n  }\n\n\n\n  // 添加产品到合约里面\n  function addProductToStore(string _name, string _category, string _imageLink, string _descLink, uint _auctionStartTime,\n    uint _auctionEndTime, uint _startPrice, uint _productCondition) public {\n\n    // 断言：判断拍卖结束时间必须大于拍卖起始时间\n    require(_auctionStartTime < _auctionEndTime);\n    // 每增加一款产品，productIndex，计数器\n    productIndex += 1;\n    // 创建一个产品的结构体对象\n    Product memory product = Product(productIndex, _name, _category, _imageLink, _descLink, _auctionStartTime, _auctionEndTime,\n      _startPrice, 0, 0, 0, 0, ProductStatus.Open, ProductCondition(_productCondition));\n\n    //存储拍卖的产品的产品的信息\n    stores[msg.sender][productIndex] = product;\n    // 1 -> 0xf550abc\n    productIdInStore[productIndex] = msg.sender;\n  }\n\n  // 通过id读取产品的数据信息\n  function getProduct(uint _productId) view public returns(uint, string, string, string, string, uint, uint, uint, ProductStatus, ProductCondition) {\n    Product memory product = stores[productIdInStore[_productId]][_productId];\n    return (product.id, product.name, product.category, product.imageLink, product.descLink, product.auctionStartTime,\n      product.auctionEndTime, product.startPrice, product.status, product.condition);\n  }\n\n  // 投标\n  function bid(uint _productId, bytes32 _bid) payable public returns(bool) {\n    // 获取产品信息\n    Product storage product = stores[productIdInStore[_productId]][_productId];\n    // 当前时间必须大于启始拍卖时间\n    require(now >= product.auctionStartTime);\n    // 当前时间必须小于结束时间\n    require(now <= product.auctionEndTime);\n    // msg.value 迷惑别人的价格\n    require(msg.value > product.startPrice);\n\n    // mapping (address => mapping (bytes32 => Bid)) bids;\n    // {0xf55 -> {0xfadfasfasl: Bid}}\n    // 3 + zhaohui\n    require(product.bids[msg.sender][_bid].bidder == 0);\n    // 存储这一次竞标的人的相关信息\n    product.bids[msg.sender][_bid] = Bid(msg.sender, _productId, msg.value, false);\n    product.totalBids += 1; // 竞标的次数\n    return true;\n  }\n\n\n  // 30 3\n\n  // 公告\n  // 赵辉 0xF055775eBD516e7419ae486C1d50C682d4170645 3 zhaohui 5 100\n  // 老麻 0xf17f52151EbEF6C7334FAD080c5704D77216b732 5 laoma   8 100\n  // yunbo 0x627306090abaB3A6e1400e9345bC60c78a8BEf57 2 yunbo 2.5\n  // 揭标 产品id，产品id由前端提供\n  // 对于辉哥和老麻公告来讲，你们需要传入两个值，一个是实际想支付的价格，一个是投标的秘钥\n  function revealBid(uint _productId, string _amount, string _secret) public {\n    // 获取你投标的产品的结构体信息\n    Product storage product = stores[productIdInStore[_productId]][_productId];\n    // 当前时间必须大于产品竞标结束时间\n    require(now > product.auctionEndTime);\n    // sealedBid 生成一个hash\n    bytes32 sealedBid = sha3(_amount, _secret);\n    // 获取投标人的相关信息\n    Bid memory bidInfo = product.bids[msg.sender][sealedBid];\n    require(bidInfo.bidder > 0); // 地址不为空\n    require(bidInfo.revealed == false); // 现在的状态必须为未公告状态\n\n    uint refund; // 判断返回多少钱\n    // 将_amount转换为uint，3\n    uint amount = stringToUint(_amount);\n    // bidInfo.value 5\n\n    if (bidInfo.value < amount) {\n      // 无效的投标\n      refund = bidInfo.value;\n    } else {\n\n      if (address(product.highestBidder) == 0) {\n        product.highestBidder = msg.sender;\n        product.highestBid = amount;\n        product.secondHighestBid = product.startPrice;\n        refund = bidInfo.value - amount; // 5 - 3，2\n      } else {\n\n        if (amount > product.highestBid) {\n          // 交换j价钱\n          product.secondHighestBid = product.highestBid;\n          // 把所有钱返回给辉哥\n          product.highestBidder.transfer(product.highestBid);\n          // 老大变成老麻\n          product.highestBidder = msg.sender;\n          // 5\n          product.highestBid = amount;\n          // 8 - 5 = 3\n          refund = bidInfo.value - amount;\n        } else if (amount > product.secondHighestBid) {\n          product.secondHighestBid = amount;\n          refund = amount;\n        } else {\n          refund = amount;\n        }\n      }\n\n      if (refund > 0) {\n        // 退还多余的代币\n        msg.sender.transfer(refund);\n        // 公告成功\n        product.bids[msg.sender][sealedBid].revealed = true;\n      }\n    }\n  }\n\n  // 返回老大和老二的数据信息\n  function highestBidderInfo(uint _productId) view public returns(address, uint, uint) {\n    Product memory product = stores[productIdInStore[_productId]][_productId];\n    return (product.highestBidder, product.highestBid, product.secondHighestBid);\n  }\n\n  // 接收到多少次投标\n  function totalBids(uint _productId) view public returns(uint) {\n    Product memory product = stores[productIdInStore[_productId]][_productId];\n    return product.totalBids;\n  }\n\n  // 将string转换为uint类型\n  function stringToUint(string s) pure private returns(uint) {\n    bytes memory b = bytes(s);\n    uint result = 0;\n    for (uint i = 0; i < b.length; i++) {\n      if (b[i] >= 48 && b[i] <= 57) {\n        result = result * 10 + (uint(b[i]) - 48);\n      }\n    }\n    return result;\n  }\n\n\n}\n",
  "sourcePath": "/Users/ludis/Mac/projects/Dapp/ebay_dapp/contracts/EcommerceStore.sol",
  "compiler": {
    "name": "solc",
    "version": "0.4.19+commit.c4cbbb05.Emscripten.clang"
  },
  "schemaVersion": "1.0.1",
  "updatedAt": "2018-03-07T09:08:32.693Z"
}